:10000000FCFF032039160000F1150000F115000077
:10001000F1150000F1150000F1150000F1150000C8
:10002000F1150000F1150000F1150000F1150000B8
:10003000F1150000F1150000F1150000F1150000A8
:10004000F1150000F1150000F1150000F115000098
:10005000F1150000F1150000F1150000F115000088
:10006000F1150000F1150000F1150000F115000078
:10007000F1150000F1150000F1150000F115000068
:10008000F1150000F1150000F1150000F115000058
:10009000F1150000F1150000F1150000F115000048
:1000A000F1150000F1150000F1150000F115000038
:1000B000F1150000F1150000F1150000F115000028
:1000C000F1150000F1150000F1150000F115000018
:1000D000F1150000F1150000F1150000F115000008
:1000E000F1150000F1150000F1150000F1150000F8
:1000F000F1150000F1150000F1150000F1150000E8
:10010000F1150000F1150000F1150000F1150000D7
:10011000F1150000F1150000F1150000F1150000C7
:10012000F1150000F1150000F1150000F1150000B7
:10013000F1150000F1150000F1150000F1150000A7
:10014000F1150000F1150000F1150000F115000097
:10015000F1150000F1150000F1150000F115000087
:10016000F1150000F1150000F1150000F115000077
:10017000F1150000F1150000F1150000F115000067
:10018000F1150000F1150000F1150000F115000057
:10019000F1150000F1150000F1150000F115000047
:1001A000F1150000F1150000F1150000F115000037
:1001B000F1150000F1150000F1150000F115000027
:1001C000F1150000F1150000F1150000F115000017
:1001D000F1150000F1150000F1150000F115000007
:1001E000F1150000F1150000F1150000F1150000F7
:1001F000F1150000F1150000F1150000F1150000E7
:08020000F1150000F1150000EA
:1016380000F010F8FFF7DCFF00F0E4FAFFF7EEFF28
:1016480000F0A0FAFFF794FFFFF75EFFFFF77CFFBB
:04165800FCE7FEE7C6
:1014E40081B01CF8019B0BF8019BBBEB0A0FF8D1F0
:0414F40001B070478C
:1015B40081B04FF000094FF0000CBDEB0A0F04DCC2
:1015C400BDEB0B0F01DBD446EA464BF8049BBBEBA7
:1015D4000A0FFAD1BCEB0A0F05DDE246D9F800B0D8
:0A15E4000BF1040BF1E701B07047B2
:1015780081B0CDF800E00C4801460020FFF730FFAD
:1015880042F280510020FFF785FF40F6FE07C0F2C7
:101598003D077F1EFDD100BF00BF00BF00BF00BFD9
:0C15A800DDF800E001B070475C1B0000A3
:1013E80081B0CDF800E009E00846FFF761FF0AE0A8
:1013F8000846FFF703FF06E0012004E00028F3D0C9
:0E1408000128F5D0F8E7DDF800E001B07047EC
:1012B80081B0CDF800E08046FFF772FE0F4F08F1CD
:1012C80014010A6808F110010E6808F10C010D6894
:1012D80008F108010C68D8F8003092B2B1B280B4B5
:1012E80004B402B4A2B201461846ABB2FFF75EFEE0
:1012F80003B00020DDF800E001B070478C17000053
:0C0FA80001480068704700BF10000020E6
:100FB40085B0CDF800E00291ADF80C20ADF810300A
:100FC400BDF81440ADF81440BDF81840ADF8184011
:100FD4000799254D254C2560254D264C2560264D29
:100FE400264C2560264D274C256001900846FFF7C6
:100FF4002BFD01256DB2244C2560FFF7CBFC019835
:10100400029D40F2E8346C432146BDF818501F4C51
:10101400246844EA05051D4C25601D4C24681CB158
:10102400440823461846FFE7CC00B4FBF0F4641CE4
:101034006608B509174C256006F03F05164C256077
:10104400BDF81050BDF80C4044EA0505ADB2BDF83A
:1010540014402543ADB2114C2560FFF789FCDDF83F
:1010640000E005B0704700BF590B000014000020D9
:10107400110D000018000020A50C00001C00002029
:101084003D0C00002000002014C3FC43301001403C
:101094001406224224100140281001402C10014063
:100A4C0081B0CDF800E040F2000B82460AF1D801EB
:100A5C0009788B4539D20C210BFB01F10AEB010112
:100A6C008C460CF108010978A9B90CF10801097838
:100A7C00CCB20CF1060109888BB20CF10401097897
:100A8C00CAB2DCF800100846D1B2002210B4FFF74D
:100A9C00ABFC01B014E00CF108010978CCB20CF1FC
:100AAC00060109888BB20CF104010978CAB2DCF892
:100ABC0000100846D1B20F2210B4FFF795FC01B01C
:100ACC000BF1010B5FFA8BFBC0E7DDF800E001B026
:020ADC00704761
:1003F40082B0CDF800E05FFA81F8D5B29FB29DF8E3
:100404000830F54C00EA0404A1462046FFF7FAFE42
:10041400F24CA54208D109F580666FEA0805EDB2F1
:1004240034682C40346008E0ED4CA54205D109F550
:1004340080652C6844EA08042C6040F2010407EA51
:100444000404A4B234B109F5A2652C6844EA080492
:100454002C6007E009F5A2666FEA0805EDB234687E
:100464002C40346040F2020407EA0404A4B234B11C
:1004740009F214552C6844EA08042C6007E009F2D8
:1004840014566FEA0805EDB234682C40346040F22B
:10049400080407EA0404A4B234B109F20C552C6828
:1004A40044EA08042C6007E009F20C566FEA0805D8
:1004B400EDB234682C40346040F2100407EA0404BE
:1004C400A4B234B109F5A0652C6844EA08042C6090
:1004D40007E009F5A0666FEA0805EDB234682C4020
:1004E400346040F2200407EA0404A4B234B109F2EF
:1004F40004552C6844EA08042C6007E009F2045609
:100504006FEA0805EDB234682C40346040F24004D0
:1005140007EA0404A4B234B109F5A1652C6844EADD
:1005240008042C6007E009F5A1666FEA0805EDB23E
:1005340034682C40346041F2000407EA0404A4B295
:10054400012C13D042F2000407EA0404A4B2012CE3
:100554000CD044F2000407EA0404A4B2012C05D030
:10056400DEB24B46B8B25FFA88F53CE000200026C4
:10057400DAB2BBB207465FFA88F04946082E13D2B6
:1005840020FA06F4E4B204F00104E4B24CB17500BC
:100594002DB2032424B2AC4024B247EA04052F460A
:1005A400FFE7761CF6B2E9E701F6C476FD4334684A
:1005B4002C40346001F23C56C543EDB234682C4003
:1005C400346001F5A166C543EDB234682C40346053
:1005D40001F20456C543EDB234682C403460C5B210
:1005E40098B20B46D6B2002141F2000400EA04049A
:1005F400A4B23CB300220F46E9B2082A13D221FA6E
:1006040002F4E4B204F00104E4B24CB155002DB29A
:10061400012424B2AC4024B247EA04052F46FFE784
:10062400521CD2B2E9E703F6C4752C683C432C6033
:1006340003F5A1652C680C432C603D461F4683B22C
:10064400C8B203E01F4683B2E8B20D4642F200048A
:1006540003EA0404A4B26CB30022A8463946082A6B
:1006640013D220FA02F4E4B204F00104E4B24CB16F
:1006740055002DB2032424B2AC4024B248EA040548
:10068400A846FFE7521CD2B2E9E701F6C4752C680C
:1006940044EA08042C6001F23C552C6804432C60A5
:1006A40001F5A1652C6804432C60F7B20E46C2B272
:1006B40098B205E00197C2B298B2F7B2A846019E7B
:1006C40044F2000400EA0404A4B284B30023D1B2C7
:1006D400082B14D221FA03F4E4B204F00104E4B2C6
:1006E40054B15D002DB2032424B2AC4024B248EAD4
:1006F400040422469046FFE75B1CDBB2E8E706F6FB
:10070400C4752C6844EA08042C6006F23C552C6835
:100714000C432C6006F5A1652C680C432C6006F292
:1007240004552C680C432C60FBB2324602E0D1B273
:100734003246FBB240F2800400EA0404A4B274B16D
:1007440040F2400400EA0404A4B22CB102F5A3650B
:100754002C680C432C6001E00120FAE006E002F56D
:10076400A366CD43EDB234682C40346040F20014EB
:1007740000EA0404A4B22CB102F21C552C680C4308
:100784002C6006E002F21C56CD43EDB234682C40D6
:10079400346040F2002400EA0404A4B2002C3AD0ED
:1007A400104CA24240F2000500D001250E4CA2429A
:1007B40040F2000400D0012425400C4CA24240F237
:1007C400000400D001242540094CA24240F2000458
:1007D40000D0012425400DE000F0FFFF00000000E0
:1007E4000100000000C0054000B005400090054035
:1007F40000100640594CA24240F2000400D00124EB
:1008040005EA04040CB10120A3E002F5A5652C68F7
:100814000C432C602AE0524CA24240F2000500D165
:100824000125504CA24240F2000400D1012425438A
:100834004D4CA24240F2000400D1012425434B4C0C
:10084400A24240F2000400D101242543434CA242B9
:1008540040F2000400D1012445EA040434B102F555
:10086400A566CD43EDB234682C40346040F60004F4
:1008740000EA0404A4B22CB102F5A6652C680C436A
:100884002C6006E002F5A666CD43EDB234682C4038
:10089400346040F2004400EA0404A4B22CB102F52E
:1008A40084652C680C432C6006E002F58466CD4315
:1008B400EDB234682C4034600BB9002049E00F2BB2
:1008C40001D9012045E0002700208DF80430C3B28F
:1008D40010469DF80420082B12D221FA03F4E4B246
:1008E40004F00104E4B244B19D002DB24FF00F04B2
:1008F400AC4047EA04052F46FFE75B1CDBB2EAE79E
:1009040000F22C56FD4334682C403460002600234A
:100914008DF80430CBB29DF80410082913D223FAC1
:1009240001F4E4B204F00104E4B24CB1D5B28C0099
:1009340024B205FA04F446EA040425462E46FFE7E9
:10094400491CC9B2E9E700F22C552C6834432C60E9
:100954000020DDF800E002B0704700BF0050064000
:1009640000C0054000B0054000900540001006405E
:1002080081B0664900EA010108467DE06449096851
:1002180041F0010262490A60BEE06149096841F0A3
:1002280002025F490A60B7E05D49096841F00402CB
:100238005B490A60B0E05A49096841F00802584928
:100248000A60A9E05649096841F0100254490A6059
:10025800A2E05349096841F0200251490A609BE035
:100268004F49096841F040024D490A6094E04C4901
:10027800096841F080024A490A608DE048490968E6
:1002880041F4807246490A6086E04549096841F4AC
:10029800007243490A607FE04149096841F480627D
:1002A8003F490A6078E03E49096841F400623C49E8
:1002B8000A6071E03A49096841F4805238490A6095
:1002C8006AE03749096841F4005235490A6063E039
:1002D8003349096841F4804231490A605CE0304999
:1002E800096841F400422E490A6055E02C49096822
:1002F80041F480322A490A604EE02949096841F4EC
:10030800003227490A6047E0264988423FF47EAF19
:10031800254988423FF481AF244988423FF484AF9D
:10032800234988423FF487AF224988423FF48AAF85
:10033800214988423FF48DAF204988423FF490AF6D
:100348001F4988423FF493AF1E4988423FF496AF55
:100358001D4988423FF499AF1C4988423FF49CAF3D
:100368001B4988423FF49FAF1A4988423FF4A2AF25
:10037800194988423FF4A5AF184988423FF4A8AF0D
:10038800174988423FF4ABAF164988423FF4AEAFF5
:10039800154988423FF4B1AF01B0704700F0FFFF44
:1003A80008E60F40008005400090054000A0054089
:1003B80000B0054000C0054000D0054000E0054001
:1003C80000F00540000006400010064000200640EE
:1003D80000300640004006400050064000600640DD
:0C03E800007006400080064000900640B7
:1009980081B0002149B2044801600448016004485C
:1009A800016001B0704700BF0006224220062242C3
:0409B80024062242AD
:1009740081B0012149B2044801600448016004487F
:10098400016001B0704700BF0006224220062242E7
:0409940024062242D1
:1012040081B0CDF800E08046FFF7CCFE0F4F08F127
:1012140014010A6808F110010E6808F10C010D6848
:1012240008F108010C68D8F8003092B2B1B280B469
:1012340004B402B4A2B201461846ABB2FFF730FFC1
:1012440003B00020DDF800E001B07047201A000070
:1010A40085B0CDF800E00291ADF80C20ADF8103019
:1010B400BDF81440ADF81440BDF81840ADF8184020
:1010C4000799254D254C2560254D264C2560264D38
:1010D400264C2560264D274C256001900846FFF7D5
:1010E400B3FC01256DB2244C2560FFF765FC019823
:1010F400029D40F2E8346C432146BDF818501F4C61
:10110400246844EA05051D4C25601D4C24681CB167
:10111400440823461846FFE7CC00B4FBF0F4641CF3
:101124006608B509174C256006F03F05164C256086
:10113400BDF81050BDF80C4044EA0505ADB2BDF849
:1011440014402543ADB2114C2560FFF76BFCDDF86C
:1011540000E005B0704700BF190B00001400002028
:10116400890C000018000020790C00001C000020ED
:10117400650C0000200000201CC3FC4330300140FB
:101184001406264224300140283001402C3001400E
:1009BC0081B0002149B20448016004480160044838
:1009CC00016001B0704700BF000626422006264297
:0409DC002406264285
:100A280081B0012149B204480160044801600448CA
:100A3800016001B0704700BF00062642200626422A
:040A48002406264218
:10149C0081B0CDF800E011E00846FFF7D5FE16E06C
:1014AC000846FFF739FF12E00846FFF76DFF0EE024
:1014BC000846FFF743FF0AE0012008E00028EBD0C4
:1014CC000128EDD02028EFD03028F1D0F4E7DDF85A
:0614DC0000E001B07047C2
:1012540081B0CDF800E0FFF779FD044A04490A6043
:101264000020DDF800E001B0704700BF590B00001A
:041274000C0000204A
:100D500082B0CDF800E00346214A22490A60224AC7
:100D600022490A60224A23490A60234A23490A6029
:100D700001932348FFF76AFE019B012252B22149E9
:100D80000A6000BF00BF00BFFFF706FE00F00CF9CD
:100D900040F2E83100FB01F210461901914205D9F9
:100DA000012252B218490A605A0804E0002252B2E5
:100DB00015490A601A46C100B1FBF2F1491C4B0803
:100DC0009A0912490A6003F03F0211490A60602241
:100DD00010490A60FFF7CEFDDDF800E002B0704771
:100DE000590B000014000020110D00001800002015
:100DF000A50C00001C0000203D0C0000200000207D
:100E00006818000014C3FC43140622422410014059
:080E1000281001402C100140E4
:1013240081B0CDF800E0FFF775FD044A04490A6076
:101334000020DDF800E001B0704700BF190B000089
:041344000C00002079
:100E180082B0CDF800E00346214A22490A60224AFE
:100E280022490A60224A23490A60234A23490A6060
:100E380001932348FFF706FE019B012252B2214984
:100E48000A6000BF00BF00BFFFF7B4FD00F0A8F8BC
:100E580040F2E83100FB01F210461901914205D930
:100E6800012252B218490A605A0804E0002252B21C
:100E780015490A601A46C100B1FBF2F1491C4B083A
:100E88009A0912490A6003F03F0211490A60602278
:100E980010490A60FFF7C4FDDDF800E002B07047B2
:100EA800190B000014000020890C00001800002015
:100EB800790C00001C000020650C000020000020B8
:100EC800201A00001CC3FC431406264224300140AB
:080ED800283001402C300140DC
:1013940081B0CDF800E0FFF7A1FD044A04490A60DA
:1013A4000020DDF800E001B0704700BFE911000043
:0413B4000C00002009
:100EE00082B0CDF800E00346214A22490A60224A36
:100EF00022490A60224A23490A60234A23490A6098
:100F000001932348FFF7A2FD019B012252B2214920
:100F10000A6000BF00BF00BFFFF762FD00F044F8A9
:100F200040F2E83100FB01F210461901914205D967
:100F3000012252B218490A605A0804E0002252B253
:100F400015490A601A46C100B1FBF2F1491C4B0871
:100F50009A0912490A6003F03F0211490A606022AF
:100F600010490A60FFF74EFDDDF800E002B070475F
:100F7000E911000014000020FD0A00001800002004
:100F8000490B00001C000020350B00002000002051
:100F90004419000008C3FC4314061C4224E000402E
:080FA00028E000402CE00040B5
:1009E00081B0002149B20448016004480160044814
:1009F000016001B0704700BF00061C4220061C4287
:040A000024061C426A
:100A040081B0012149B204480160044801600448EE
:100A1400016001B0704700BF00061C4220061C4262
:040A240024061C4246
:1013480081B0CDF800E0FFF763FD044A04490A6064
:101358000020DDF800E001B0704700BF190B000065
:041368000C00002055
:1015100081B0CDF800E00B490B48FFF757FF0B48AF
:101520000221FFF779FF40F6FE07C0F23D0700BF3A
:1015300000BF7F1EFDD100BF00BF00BFDDF800E08F
:1015400001B07047801B0000FC1A00000000002062
:1013CC0081B0CDF800E003460846FFF7C9FF184688
:0C13DC00FFF74CFFDDF800E001B07047A7
:10136C00026806490A60011D0A6805490A6000F214
:10137C0008010A6803490A60704700BF2C0000206E
:08138C002400002028000020CD
:021278007047BD
:1014180083B0CDF800E0024610460D228DF8082072
:101428000A228DF809201FE0FFF724FF23E0027845
:101438002AB10190FFF71EFF0198401CF7E71AE058
:1014480002782AB10190FFF715FF0198401CF7E7D1
:1014580002AA1046FFF70EFF0DF109021046FFF72A
:1014680009FF08E0062007E00029DDD00129DED0C9
:101478000229E5D0F6E70020DDF800E003B0704768
:10127C0081B0CDF800E00178CCB2A0B2034C246868
:10128C00A0470020DDF800E001B070470C00002002
:1011B00081B00449096801B1FBE70349086001B047
:0C11C000704700BF1403184200C000403C
:1011940081B00449096801B1FBE70349086001B063
:0C11A400704700BF14031A4200D0004046
:1011E80081B00449096801B1FBE70349086001B00F
:0C11F800704700BF14031C4200E00040E0
:1011CC0081B00449096801B1FBE70349086001B02B
:0C11DC00704700BF14031E4200F00040EA
:100BA40081B00449096801B1FBE70349086001B059
:0C0BB400704700BF140320420000014005
:100B580081B00449096801B1FBE70349086001B0A5
:0C0B6800704700BF14032242001001403F
:100AE00081B00449096801B1FBE70349086001B01E
:0C0AF000704700BF1403244200200140A6
:100B180081B00449096801B1FBE70349086001B0E5
:0C0B2800704700BF14032642003001405B
:1015500082B0CDF800E0FFF797FF012807D1FFF731
:101560002BFF8DF8040001A80021FFF755FFDDF8DF
:0615700000E002B070472C
:1014880081B0CDF800E0FFF73BFFDDF800E001B0E8
:0214980070479B
:1013080081B0CDF800E0044C2468A047C0B2DDF8F5
:0C13180000E001B0704700BF280000207A
:100B740081B00448006800B1FBE70348006801B095
:0C0B8400704700BF1003184200C0004082
:100C000081B00248006801B0704700BF1803184265
:100B900081B00348006880F00100C0B201B0704726
:040BA0000C031842E8
:100BC00081B00448006800B1FBE70348006801B049
:0C0BD000704700BF10031A4200D0004024
:100BF00081B00248006801B0704700BF18031A4274
:100BDC0081B00348006880F00100C0B201B07047DA
:040BEC000C031A429A
:100AFC0081B00448006800B1FBE70348006801B00E
:0C0B0C00704700BF10031C4200E00040D6
:100B480081B00248006801B0704700BF18031C421A
:100B340081B00348006880F00100C0B201B0704782
:040B44000C031C4240
:100CD80081B00448006800B1FBE70348006801B030
:0C0CE800704700BF10031E4200F00040E7
:100CC80081B00248006801B0704700BF18031E4297
:100CB40081B00348006880F00100C0B201B0704701
:040CC4000C031E42BD
:100CF40081B00448006800B1FBE70348006801B014
:0C0D0400704700BF1003204200000140B7
:100D400081B00248006801B0704700BF180320421C
:100D2C0081B00348006880F00100C0B201B0704788
:040D3C000C03204242
:100D100081B00448006800B1FBE70348006801B0F7
:0C0D2000704700BF100322420010014089
:100CA40081B00248006801B0704700BF18032242B7
:100C3C0081B00348006880F00100C0B201B0704779
:040C4C000C03224231
:100C200081B00448006800B1FBE70348006801B0E8
:0C0C3000704700BF100324420020014068
:100C100081B00248006801B0704700BF1803244249
:100C500081B00348006880F00100C0B201B0704765
:040C60000C0324421B
:100C880081B00448006800B1FBE70348006801B080
:0C0C9800704700BF1003264200300140EE
:100C780081B00248006801B0704700BF18032642DF
:100C640081B00348006880F00100C0B201B0704751
:040C74000C03264205
:1013B80081B0CDF800E0FFF76DFFDDF800E001B087
:0213C80070476C
:10129C0081B0CDF800E0044C2468A047C0B2DDF862
:0C12AC0000E001B0704700BF24000020EB
:10165C0081B0CDF800E0344A344B354C354D364E24
:10166C004FF03011354801600021354801606FF0B2
:10167C00010003EA000133480160C3F3C00018B94C
:10168C00FFF734FFFFF732FFC3F3000018B101215D
:10169C0049B22D4801602D48864203D92C49274870
:1016AC00016021E02B48864203D92B492348016075
:1016BC001AE04CF25030864203D928491F48016089
:1016CC0012E047F23050864203D925491B4801608D
:1016DC000AE0B6F57A5F03D922491848016003E0A5
:1016EC004FF03011154801601F4804601F48056019
:1016FC006FF0805002EA000111480160012149B2EB
:10170C001B4801601B48016002F0805038B11A4838
:10171C00006800B9FBE7012149B218480160DDF807
:10172C0000E001B0704700BF04003033110000002E
:10173C001800800000000000C0D40100C0E00F4081
:10174C00B0E00F407CE00F40800FFC43A08601000E
:10175C00960130008038010055013000D300300074
:10176C00B20030007100300060E10F4064E10F40C6
:10177C007C16FC437816FC43002DFC437016FC438E
:1014F80041F67E27C0F206077F1EFDD100BF00BF60
:0815080000BF00BF00BF7047E7
:1016240081B002490248016001B07047C0D4010092
:041634001000002082
:0815F00081B0FEE701B0704775
:1015F80081B04EF68850CEF20000016841F47001C7
:10160800016000BF00BF00BF00BFF1EE100A40F448
:0A1618004000E1EE100A01B0704737
:101B8C0000B5DFF814B0DFF814A0DFF814C0FFF7CD
:101B9C00A3FC00BD704700BF000000200C0000201B
:041BAC00741B0000A6
:101C0C0000B5DFF810B0DFF810A0FFF7CDFC00BD79
:0C1C1C00704700BF0000002030000020D6
:10178C0000A00540400040050100000000A00540FD
:10179C008000400501000000000000000000000077
:1017AC00000000000000000000000000000000002D
:1017BC00000000000000000000000000000000001D
:1017CC00000000000000000000000000000000000D
:1017DC0000000000000000000000000000000000FD
:1017EC0000000000000000000000000000000000ED
:1017FC0000000000000000000000000000000000DD
:10180C0000000000000000000000000000000000CC
:10181C0000000000000000000000000000000000BC
:10182C0000000000000000000000000000000000AC
:10183C00000000000000000000000000000000009C
:10184C00000000000000000000000000000000008C
:0C185C000000000000000000020000007E
:1018680000F00540400040050100000000F0054080
:10187800800040050100000000000000000000009A
:101888000000000000000000000000000000000050
:101898000000000000000000000000000000000040
:1018A8000000000000000000000000000000000030
:1018B8000000000000000000000000000000000020
:1018C8000000000000000000000000000000000010
:1018D8000000000000000000000000000000000000
:1018E80000000000000000000000000000000000F0
:1018F80000000000000000000000000000000000E0
:1019080000000000000000000000000000000000CF
:1019180000000000000000000000000000000000BF
:1019280000000000000000000000000000000000AF
:0C193800000000000000000002000000A1
:1019440000B00540100040050100000000B0054053
:10195400200040050100000000000000000000001D
:101964000000000000000000000000000000000073
:101974000000000000000000000000000000000063
:101984000000000000000000000000000000000053
:101994000000000000000000000000000000000043
:1019A4000000000000000000000000000000000033
:1019B4000000000000000000000000000000000023
:1019C4000000000000000000000000000000000013
:1019D4000000000000000000000000000000000003
:1019E40000000000000000000000000000000000F3
:1019F40000000000000000000000000000000000E3
:101A040000000000000000000000000000000000D2
:0C1A1400000000000000000002000000C4
:101A200000A00540100040050100000000A0054096
:101A30002000400501000000000000000000000040
:101A40000000000000000000000000000000000096
:101A50000000000000000000000000000000000086
:101A60000000000000000000000000000000000076
:101A70000000000000000000000000000000000066
:101A80000000000000000000000000000000000056
:101A90000000000000000000000000000000000046
:101AA0000000000000000000000000000000000036
:101AB0000000000000000000000000000000000026
:101AC0000000000000000000000000000000000016
:101AD0000000000000000000000000000000000006
:101AE00000000000000000000000000000000000F6
:0C1AF000000000000000000002000000E8
:101AFC00FFFFFFFFFFFFFFFFFFFFFFFFFFFFFFFFEA
:101B0C00FFFFFFFFFFFFFFFFFFFFFFFFFFFFFFFFD9
:101B1C00FFFFFFFFFFFFFFFFFFFFFFFFFFFFFFFFC9
:101B2C00FFFFFFFFFFFFFFFFFFFFFFFFFFFFFFFFB9
:101B3C00FFFFFFFFFFFFFFFFFFFFFFFFFFFFFFFFA9
:101B4C00FFFFFFFFFFFFFFFFFFFFFFFFFFFFFFFF99
:101B5C008025000000000000600000000000000074
:081B6C00000000002000000051
:0C1B7400496E697469616C697A656400EF
:0C1B8000590B0000110D0000A50C000026
:00000001FF
